:100000000C941B010C9443010C9443010C94430188
:100010000C9443010C9443010C9443010C94430150
:100020000C9443010C9443010C9468040C94DA047E
:100030000C9443010C9443010C9443010C94430130
:100040000C9443010C9443010C9443010C94430120
:100050000C9443010C9443010C9443010C94170736
:100060000C9443010C9443010C9443010C94430100
:100070000C9443010C9443010C9443010C944301F0
:100080000C9443010C9443010C9443010C944301E0
:100090000C9461070C9443010C9443010C944301AC
:1000A0000C9443010C9443010C944301C309C60909
:1000B000B509B909BD09E709E709E709CA09CE0980
:1000C000D209D809DC09E709E20900000000240090
:1000D00027002A002D0030000A0A446973706C6101
:1000E0007920494E413232362052656164696E672B
:1000F000732056312E302E300A006D570042757332
:1001000020776174746167653A202020006D41009A
:1001100042757320616D7065726167653A202000D9
:100120006D56005368756E7420766F6C74616765E8
:100130003A2000560042757320766F6C74616765D3
:100140003A20202000080B000202020100090400EE
:100150000001020200000524001001052401010134
:10016000042402060524060001070581031000404F
:1001700009040100020A0000000705020240000015
:100180000705830240000004030904417264756995
:100190006E6F204C4C430041726475696E6F204D48
:1001A0006963726F001201000200000040412337B2
:1001B0008000010102030112010002EF020140412F
:1001C0002337800001010203010000000025002800
:1001D000002B002E00310004040404040304050273
:1001E00002020204030202020206060606060604D2
:1001F000040202020404040802011040804010209E
:1002000040804080080204018040201002011080DC
:1002100010204040200000000200090F00000304ED
:1002200001000C00000000000000000000000000C1
:1002300000000000BC0D11241FBECFEFDAE0DEBFCE
:10024000CDBF11E0A0E0B1E0EAEEF3E202C005901C
:100250000D92A434B107D9F722E0A4E4B1E001C0C3
:100260001D92A038B207E1F711E0CBE1D1E004C064
:100270002197FE010E942C0ECA31D107C9F70E94B6
:10028000990B0C94F3110C9400004091970150913C
:100290009801209195013091960142175307B4F4CB
:1002A0009091E8009570E1F39091E80092FD19C0FB
:1002B0008093F100809197019091980101968F733E
:1002C0009927892B19F48EEF8093E800809197018C
:1002D000909198010196909398018093970181E005
:1002E000089580E00895CF92DF92EF92FF920F93EE
:1002F0001F93CF93DF931F92CDB7DEB7182F062F32
:10030000E42E862F880F8E5F99830E94450183E03B
:100310000E944501F12EC12E9981D92E8C2D8F1965
:10032000801798F4F601E7FE02C0849101C0808135
:100330000E944501182F80E00E9445018123FFEFB4
:10034000CF1ADF0A8111EACF01C081E00F90DF915F
:10035000CF911F910F91FF90EF90DF90CF90089574
:10036000DF92EF92FF920F931F93CF93DF93D82EDC
:100370008A017B01E40EF51EEB01CE15DF0571F05D
:10038000D7FE03C0FE01849101C088810E9445010F
:1003900021968111F2CF8FEF9FEF01C0C801DF914D
:1003A000CF911F910F91FF90EF90DF9008956150D2
:1003B00030F02091F100FC0120830196F8CF289ABB
:1003C00084E680939D010895CF92DF92EF92FF9291
:1003D0000F931F93CF93DF936C017A018B01C0E0E1
:1003E000D0E0CE15DF0589F0D8016D918D01D601E1
:1003F000ED91FC910190F081E02DC6010995892BCA
:1004000011F47E0102C02196ECCFC701DF91CF919C
:100410001F910F91FF90EF90DF90CF900895CF93B1
:10042000DF931F92CDB7DEB76983DC01ED91FC91BC
:100430000280F381E02D41E050E0BE016F5F7F4F0D
:1004400009950F90DF91CF91089583E08093E900A3
:100450008091F200882319F08AE38093E8000895E0
:10046000FC018485958597FD0BC09FB7F89482E0C9
:100470008093E9008091F2009FBF90E0019608957B
:100480009FB7F89482E08093E9008091F2009FBFCB
:1004900090E008953FB7F894809190019091910178
:1004A000A0919201B091930126B5A89B05C02F3F62
:1004B00019F00196A11DB11D3FBFBA2FA92F982F8A
:1004C0008827820F911DA11DB11DBC01CD0142E005
:1004D000660F771F881F991F4A95D1F708958F924D
:1004E0009F92AF92BF92CF92DF92EF92FF926B01F9
:1004F0007C010E944A024B015C01C114D104E10459
:10050000F104F1F00E944A02DC01CB01881999093B
:10051000AA09BB09883E9340A105B10570F321E00B
:10052000C21AD108E108F10888EE880E83E0981E0F
:10053000A11CB11CC114D104E104F10419F7DDCFF1
:10054000FF90EF90DF90CF90BF90AF909F908F90F3
:1005500008958F929F92AF92BF92CF92DF92EF92C7
:10056000FF920F931F93CF93DF935C016B018A017E
:1005700080910B01882309F45EC080919E0188233D
:1005800009F459C080919B0180FF05C08091E00073
:1005900082608093E000E8018AEFF82E93E0E92E74
:1005A0002FE3822E3AE3932E209709F43DC08FB7B4
:1005B000F894E092E9009091E80095FF06C09091D0
:1005C000F200282D291B922F01C090E08FBF9111BE
:1005D0000AC0FA94FF2079F161E070E080E090E0D9
:1005E0000E946F02E1CF292F30E0C217D3070CF42D
:1005F0009C2F8FB7F894E092E9002091E80025FF46
:1006000011C0292F30E0C21BD30BF601915020F00E
:1006100041914093F100FACFC20ED31E9091E800B1
:1006200095FF13C08FBFC0CF5D9A84E680939C0175
:100630001016110644F081E090E0F5019383828367
:1006400080E090E005C0C80103C09092E800EACFC6
:10065000DF91CF911F910F91FF90EF90DF90CF909E
:10066000BF90AF909F908F90089585ED8093BC00D0
:100670008091BC0084FDFCCF1092E7010895409169
:100680006601262F30E0240F311D21323105DCF4C4
:100690002091E7012430C9F4FC0180E090E0861746
:1006A00058F4309166012191DC01AC5BBE4FA30F81
:1006B000B11D2C930196F3CF80916601680F609372
:1006C000660180E0089581E0089582E0089508952C
:1006D000E091A00180919F01E81730F4F0E0EF5520
:1006E000FE4F808190E008958FEF9FEF08959091E5
:1006F000A00180919F01981750F4E92FF0E0EF5589
:10070000FE4F208130E09F5F9093A00102C02FEF49
:100710003FEFC901089580919F0190E02091A001D1
:10072000821B91090895CF92DF92EF92FF920F936F
:100730001F93CF93DF937C01262F972F8A018091FF
:10074000E801882391F0C62FD72F6E01C40ED51E65
:10075000CC15DD0571F06991D701ED91FC91019007
:10076000F081E02DC7010995F3CF642F822F0E94FD
:100770003F03C801DF91CF911F910F91FF90EF9040
:10078000DF90CF900895CF93DF931F92CDB7DEB760
:1007900069832091E8012223D1F020910B022032BD
:1007A00040F021E030E0FC013383228380E090E0E0
:1007B00015C08091E901E82FF0E0E651FE4F9981E4
:1007C00090838F5F8093E90180930B0205C061E005
:1007D000CE0101960E943F0381E090E00F90DF91EF
:1007E000CF9108950F931F93CF93DF931F92CDB7AF
:1007F000DEB782E0898342E450E065E471E080E89E
:100800000E94B0010E94850BDC0112960D911C9193
:1008100013970115110569F0D801ED91FC91028043
:10082000F381E02DBE016F5F7F4FC801099597FFEF
:1008300007C089810F90DF91CF911F910F9108958B
:10084000F80100851185E5CFCF93DF931F92CDB7D7
:10085000DEB7FC018485958597FD05C02FEF3FEF3E
:10086000358724870BC0CE0101960E945B0B019750
:1008700019F4898190E002C08FEF9FEF0F90DF9114
:10088000CF9108950F931F93CF93DF931F92CDB70E
:10089000DEB78C01FC018485958597FF0EC0CE01E3
:1008A00001960E945B0B019719F4298130E002C088
:1008B0002FEF3FEFF80135872487F8018485958570
:1008C0000F90DF91CF911F910F9108950E94EE112B
:1008D0001F920F920FB60F9211248F939F938091C6
:1008E000E1009091E100937F9093E10083FF0FC0BE
:1008F0001092E90091E09093EB001092EC0092E3EB
:100900009093ED0010929E0198E09093F00082FF8A
:1009100020C093E09093E9009091F200992319F0A0
:100920009AE39093E80090919C01992339F090917B
:100930009C01915090939C01992389F190919D0184
:10094000992339F090919D01915090939D019923A5
:1009500041F184FF10C08091E2008E7E816080931F
:10096000E2008091E1008F7E8093E10080919B0105
:100970008E7E806111C080FF16C08091E2008E7E65
:1009800080618093E2008091E1008E7E8093E1009F
:1009900080919B018E7E816080939B0104C05D9855
:1009A000CDCF2898D6CF9F918F910F900FBE0F90EB
:1009B0001F9018951F920F920FB60F921124CF928D
:1009C000DF92EF92FF920F931F932F933F934F93DA
:1009D0005F936F937F938F939F93AF93BF93EF93A7
:1009E000FF93CF93DF93CDB7DEB76C97DEBFCDBF5C
:1009F0001092E9008091E80083FFFAC168E0CE011F
:100A000045960E94D70182EF8093E8008D8987FF89
:100A100005C09091E80090FFFCCF03C09EEF90933B
:100A2000E800982F907609F0C6C09E892F89188D0E
:100A300091110CC0803829F480919A018093F100C3
:100A400002C01092F1001092F10047C1422F50E015
:100A5000512B913051F4811140C14130510509F0C1
:100A60003CC180919A018D7F0BC0933061F481115C
:100A700034C14130510509F030C180919A01826042
:100A800080939A012AC1953041F48091E80080FF5B
:100A9000FCCF20682093E30020C1963009F05FC0AE
:100AA000EB8CFC8C1092E900109298011092970147
:100AB000123091F510929601109295010E94F20366
:100AC00099E0BE016F5F7F4FDB01E92F1D92EA9530
:100AD000E9F799831A8391E09E8390EA98879AEFC9
:100AE00099872091970130919801275F3F4F3C8370
:100AF0002B838D831092E900109298011092970138
:100B0000F0929601E092950149E050E080E00E9469
:100B1000B0010E94F203E1C0F0929601E0929501CB
:100B20000E94850BDC011296ED90FC901397E11466
:100B3000F10409F4C0C0D701ED91FC910480F58166
:100B4000E02DBE016B5E7F4FC7010995009719F03C
:100B50000CF0C3C0C6C0F701E084F184E8CF973041
:100B600009F4BFC0983021F481E08093F100B5C052
:100B7000993009F0B2C0837009F0B3C0EDE0F1E044
:100B800081E021E036E39081992361F08093E900D0
:100B90002093EB0091919093EC003093ED008F5FE8
:100BA000873089F78EE78093EA001092EA008F89F8
:100BB00080939E0192C08B8D9C8D1092E9001092C3
:100BC0009801109297019093960180939501898DD9
:100BD000811156C08E899D89913A59F4813209F06C
:100BE00080C047E050E064E071E080E00E94B00126
:100BF00074C0913209F075C0833289F4888D90E019
:100C0000982F88272F89822BA0E0B0E080930001E5
:100C100090930101A0930201B09303015EC0803262
:100C200069F48091E80082FFFCCF67E084E091E006
:100C30000E94D7018BEF8093E80006C0823209F052
:100C40004CC08F8980930B0180919901882319F002
:100C5000EEEFFAE002C0E0E0F8E08091040190914C
:100C60000501A0910601B0910701803B9440A105C8
:100C7000B10509F088C080910B0180FFA0C083C03E
:100C80000E94850BDC0112960D911C9113970115A2
:100C9000110539F1D801ED91FC910190F081E02D21
:100CA000BE016B5E7F4FC8010995811116C0F80126
:100CB00000851185ECCF1130C1F0133091F48F898C
:100CC000882309F455C08230E9F440E86DE087E9F3
:100CD00091E00E947301882321F08EEF8093E80059
:100CE00087C081E28093EB0083C08B8D9C8D089739
:100CF00011F41093940180919401811136C065EA3A
:100D000071E038C0813029F440E86BE08BE891E075
:100D1000E0CF833031F70E94850BDC011296ED9015
:100D2000FC9013978E010F5F1F4F6801E114F104CF
:100D300079F0D701ED91FC910680F781E02DB801A3
:100D4000C7010995080F111DF701E084F184EECF6A
:100D5000D8011C92F60101900020E9F73197BF01FC
:100D60006C197D0940E0C601B4CF67EB71E002C0A9
:100D700067E871E06115710509F4B3CFFB01449197
:100D800050E080E833CF0FB6F894A89580916000CA
:100D9000886180936000109260000FBEA895EE3FBE
:100DA0002AE0F20739F08091FE0A9091FF0A9183C0
:100DB000808393CF1092FF0A1092FE0A8ECFEE3FEF
:100DC0008AE0F80731F0808191819093FF0A809347
:100DD000FE0A87E797E7918380839BE088E10FB65F
:100DE000F894A895809360000FBE9093600075CF33
:100DF0006C960FB6F894DEBF0FBECDBFDF91CF91DA
:100E0000FF91EF91BF91AF919F918F917F916F91E2
:100E10005F914F913F912F911F910F91FF90EF9014
:100E2000DF90CF900F900FBE0F901F9018951F92DC
:100E30000F920FB60F9211242F933F938F939F938E
:100E4000AF93BF9380918C0190918D01A0918E0101
:100E5000B0918F0130918B0123E0230F2D3720F4C7
:100E60000196A11DB11D05C026E8230F0296A11D04
:100E7000B11D20938B0180938C0190938D01A093E1
:100E80008E01B0938F018091900190919101A0917A
:100E90009201B09193010196A11DB11D8093900123
:100EA00090939101A0939201B0939301BF91AF9160
:100EB0009F918F913F912F910F900FBE0F901F9098
:100EC00018951F920F920FB60F9211242F933F93F4
:100ED0004F935F936F937F938F939F93AF93BF9342
:100EE000EF93FF938091B900887F803609F49CC00E
:100EF00068F5883209F45BC090F4803109F454C07D
:100F000038F4882309F4F6C0883009F44DC0F6C0DF
:100F1000883109F44CC0803209F45DC0EFC08034E0
:100F200009F468C048F4803309F455C0883309F0E7
:100F3000E5C08093E501D8C0803509F44FC08835FD
:100F400009F45DC0883409F0D9C0D6C0883909F4E5
:100F5000C7C0A8F4883709F467C038F4883609F4A4
:100F600063C0803709F460C0C9C0883809F4B8C0CC
:100F7000803909F45FC0803809F0C0C05BC0803B95
:100F800009F486C038F4803A09F466C0883A09F456
:100F90007FC0B4C0803C09F4A7C0883C09F4A4C059
:100FA000883B09F48AC0AAC08091C20110C0909108
:100FB000E4018091E301981770F5E091E40181E08C
:100FC0008E0F8093E401F0E0ED53FE4F808180931B
:100FD000BB0085EC86C08093E5018EC0E091E40102
:100FE00081E08E0F8093E4018091BB00F0E0ED532F
:100FF000FE4F80839091E4018091E3016EC0E09107
:10100000E40181E08E0F8093E4018091BB00F0E069
:10101000ED53FE4F80838091E60181116DC081E028
:101020008093C10184EA61C083E08093E70110925C
:101030008A01CFCF80918A01803208F051C0E091BF
:101040008A0181E08E0F80938A018091BB00F0E0DD
:10105000E659FE4F8083BDCF85EC8093BC00109293
:10106000E70180918A01803230F4E0918A01F0E05A
:10107000E659FE4F108260918A0170E0E0916801AC
:10108000F09169018AE691E0099510928A0136C0D3
:1010900084E08093E7011092670110926601E0916D
:1010A0006401F0916501099580916601811105C087
:1010B00081E08093660110924401E091670181E034
:1010C0008E0F80936701F0E0EC5BFE4F8081809390
:1010D000BB009091670180916601981708F479CF61
:1010E00085E88093BC000AC085EC8093BC00109218
:1010F000E70104C01092E5010E943503FF91EF91D2
:10110000BF91AF919F918F917F916F915F914F911F
:101110003F912F910F900FBE0F901F901895382F71
:1011200020910B0290910A02213208F049C080916F
:10113000E7018111FCCF42E04093E7013093E601E3
:101140003FEF3093E5011092E4012093E301AAEE12
:10115000B1E043EC51E0FA013E2F341B321718F492
:101160003D913193F9CF1092C2012091C201990FA4
:10117000922B9093C2019091C101913061F4109231
:10118000C1019091C2019093BB009091BC0093FD6E
:10119000F8CF95EC01C095EE9093BC009091E701DB
:1011A0009230E1F39091E5019F3F79F08091E50164
:1011B000803241F08091E501803331F084E005C058
:1011C00081E003C082E001C083E01092E901109247
:1011D0000B021092E8010895EF92FF921F93CF93B4
:1011E000DF931F92CDB7DEB7162F98E6E92E92E077
:1011F000F92EF701908121E02093E80190930A02F3
:101200001092E90110920B02682F8CE592E079832D
:101210000E94C3037981672F8CE592E00E94C3038B
:10122000612F8CE592E00E94C30381E00E948F0849
:10123000F70181830F90DF91CF911F91FF90EF9085
:101240000895CF93DF939091680221E02093E80105
:1012500090930A021092E90110920B02682F8CE51C
:1012600092E00E94C30381E00E948F08809369028C
:1012700083E290E00197F1F7209168028091E70105
:101280008111FCCF81E08093E7018093E6019FEF1D
:101290009093E5011092E4018093E3018093C201F1
:1012A0009091C201822F880F892B8093C201809177
:1012B000C101813061F41092C1018091C20180931B
:1012C000BB008091BC0083FDF8CF85EC01C085EEAA
:1012D0008093BC008091E7018130E1F38091E401CB
:1012E000823018F48091E40101C082E0A3ECB1E007
:1012F00021EA31E0F9019E2F921B981718F49D9175
:101300009193F9CF1092A00180939F01811101C0A8
:10131000FFCF8CE592E00E947703D82F80E0C82FA2
:101320008CE592E00E9477038C2B9D2BDF91CF916F
:10133000089590E0FC01EB5EFD4F4491FC01EA5002
:10134000FE4F2491FC01E952FE4F8491882309F459
:101350004CC04423E1F150E0FA013197EF30F10540
:10136000B0F5EA5AFF4F0C942C0E909180009F77B5
:1013700007C0909180009F7D03C090918000977F6F
:101380009093800024C094B59F7702C094B59F7D50
:1013900094BD1DC0909190009F7707C090919000E0
:1013A0009F7D03C090919000977F909390000FC015
:1013B0009091C0009F7703C09091C0009F7D909353
:1013C000C00005C09091C200977F9093C200E82FA3
:1013D000F0E0EE0FFF1FE753FE4FA591B4918FB7DA
:1013E000F894EC912E2B2C938FBF08950F931F939D
:1013F000CF93DF938C01C0E0D0E0F801EC0FFD1F2C
:101400006491662371F0E0910C02F0910D0201905D
:10141000F081E02D8CE092E00995892B11F0219666
:10142000ECCFCE01DF91CF911F910F910895BC01B8
:10143000009791F0FC0101900020E9F73197AF018E
:10144000481B590BE0910C02F0910D020280F381D0
:10145000E02D8CE092E0099480E090E008958F9276
:101460009F92AF92BF920F931F93CF93DF93CDB70D
:10147000DEB7A1970FB6F894DEBF0FBECDBF19A29D
:10148000423008F44AE08E010F5D1F4F842E912CEC
:10149000A12CB12CA50194010E94EB0DE62FB901FE
:1014A000CA0101501109EA3014F4E05D01C0E95CA1
:1014B000D801EC93232B242B252B61F7C8010E9424
:1014C000170AA1960FB6F894DEBF0FBECDBFDF910D
:1014D000CF911F910F91BF90AF909F908F900895E3
:1014E000CF93DF930E94F609EC0183E391E00E9421
:1014F000170A8C0F9D1FDF91CF9108954F925F9235
:101500006F927F928F929F92AF92BF92CF92DF9213
:10151000EF92FF926B017C01B42E9B01AC010E9403
:10152000E911882319F086E391E027C026013701ED
:10153000E89477F82FEF3FEF4FE75FE7C301B20181
:101540000E94E91181110DC02FEF3FEF4FE75FE7D8
:10155000C301B2010E941F1018161CF48AE391E027
:101560000CC02FEF3FEF4FE75FE4C701B6010E94C9
:101570007711181684F48EE391E0FF90EF90DF90DE
:10158000CF90BF90AF909F908F907F906F905F9023
:101590004F900C94170A2FEF3FEF4FE75FECC70116
:1015A000B6010E941F1087FDE6CF20E030E0A901C0
:1015B000C701B6010E941F1087FF11C0E0910C0205
:1015C000F0910D020190F081E02D6DE28CE092E04F
:1015D00009954C01F7FAF094F7F8F09402C0812CC9
:1015E000912CA12C60E070E080E09FE3AB1441F00F
:1015F00020E030E040E251E40E942410A394F6CFB2
:101600009B01AC01C701B6010E94B30F2B013C0145
:101610000E9496106B017C010E94C5109B01AC01D9
:10162000C301B2010E94B20F2B013C014AE0C70185
:10163000B6010E942F0A7C01E80CF91CBB2031F096
:1016400082E491E00E94170AE80EF91EDB2CDD20EF
:1016500021F120E030E040E251E4C301B2010E94F8
:101660007C112B013C010E9496104B01A12CB12C46
:101670004AE0C501B4010E942F0AE80EF91EC50117
:10168000B4010E94C5109B01AC01C301B2010E94CC
:10169000B20F2B013C01DA94DACFC701FF90EF9033
:1016A000DF90CF90BF90AF909F908F907F906F9082
:1016B0005F904F900895FC0180919E01811103C0BD
:1016C0008FEF9FEF08959FB7F89482E08093E90031
:1016D0002091F20030E01216130614F421E030E0FD
:1016E0002115310559F0289A84E680939D01809157
:1016F000F10080838091F200882319F09FBFC90117
:1017000008958BE68093E800F9CF809178028111EB
:101710000DC082E08093740284E080937502109281
:1017200077021092760281E08093780284E792E05B
:101730000895789484B5826084BD84B5816084BD49
:1017400085B5826085BD85B5816085BD80916E005F
:10175000816080936E001092810080918100826090
:1017600080938100809181008160809381008091CD
:1017700080008160809380008091910082608093DE
:101780009100809191008160809391008091900000
:101790008160809390008091C10084608093C1003B
:1017A0008091C10082608093C1008091C1008160FE
:1017B0008093C1008091C30081608093C3008091B9
:1017C000C00082608093C0008091C20081608093DD
:1017D000C20080917A00846080937A0080917A00C0
:1017E000826080937A0080917A00816080937A0091
:1017F00080917A00806880937A0010929E01109206
:101800009A0110929B018091D70081608093D7004C
:1018100080EA8093D80089B5806189BD89B58260EE
:1018200089BD09B400FEFDCF61E070E080E090E08A
:101830000E946F028091D8008F7C80618093D800D5
:101840008091E000807F8093E0008091E1008E7EB7
:101850008093E1008DE08093E200559A209A5D9894
:101860002898EEEFFFE7859194918B3F9C4D19F4FA
:1018700081E080939901E3E0F2E02491E4EEF1E06D
:101880008491882399F090E0880F991FFC01E6531A
:10189000FF4FA591B491FC01E753FE4F85919491C0
:1018A0008FB7F894EC91E22BEC938FBF8DE00E9400
:1018B00099098FEF9FEF909319028093180260EDC2
:1018C00077E080E090E00E946F0288ED90E00E9457
:1018D000F6091092A00110929F011092E901109256
:1018E0000B021092E701C1E0C093E6011092C10122
:1018F00082E00E94990983E00E9499098091B900D1
:101900008E7F8093B9008091B9008D7F8093B9005C
:1019100088E48093B80085E48093BC00C09368029B
:10192000809168028F3708F041C0C093E80180932E
:101930000A021092E90110920B0281E00E948F08C6
:1019400081112EC060E070E80E94EC086AE070E04F
:1019500080E090E00E946F0280E00E9421098732BF
:101960009144F1F486E397E790936F0280936E02BF
:101970008DE896E090936B0280936A0286E494EA85
:10198000ABE0B0E08093700290937102A09372027A
:10199000B09373026DE876E085E00E94EC0806C023
:1019A000809168028F5F80936802BACF80E00E94C6
:1019B0002109917FBC01726080E00E94EC0880E008
:1019C0000E942109BC01606C716080E00E94EC08FB
:1019D00080E00E942109BC01686380E00E94EC085D
:1019E00080E00E942109BC016F6080E00E94EC0849
:1019F000C4E64C2E512C612C712CC0E0D0E085E364
:101A000091E00E94F60982E00E9421092DE730E072
:101A1000DC010E94320EA30192010E94EB0DCA016B
:101A2000B9010E94C51020E030E04AE754E40E946A
:101A3000241044E00E947E0A83E391E00E94700A31
:101A400083E291E00E94F60981E00E94210929E1E8
:101A500030E0DC010E94320E2AE030E040E050E04D
:101A60000E940D0ECA01B9010E94C71020E030E0AB
:101A70004AE754E40E94241043E00E947E0A80E278
:101A800091E00E94700A80E191E00E94F60984E0F2
:101A90000E94210920916E0230916F02BC01990FC2
:101AA000880B990B40E050E00E94920EE8EEAE2EBB
:101AB000F3E0BF2EC12CD12CE12CF12C00E010E082
:101AC0000E94CE0EB901CA010E94C71020E030E08A
:101AD0004AE754E40E94241043E00E947E0A8DE00D
:101AE00091E00E94700A8DEF90E00E94F60983E079
:101AF0000E942109E92FF82F990F990B009170028C
:101B000010917102209172023091730258016901A3
:101B100000E010E02F2F3E2F492F592F692F792FEA
:101B2000892F0E94390EA8EEAA2EB3E0BB2EC12C3D
:101B3000D12C0E94CE0EB901CA010E94C71020E02C
:101B400030E04AE754E40E94241043E00E947E0AF9
:101B50008AEF90E00E94700A83E391E00E94170AE6
:101B600060ED77E080E090E00E946F02209709F43A
:101B700046CF0E94000043CFECE0F2E013821282D5
:101B800088EE93E0A0E0B0E084839583A683B783DA
:101B900027E131E0318320832FEF3FEF3587248722
:101BA000ECE5F2E01382128284839583A683B783E7
:101BB00087E291E091838083E8E6F2E0108211826F
:101BC0001382128215821482178216821086118661
:101BD000128613860895A1E21A2EAA1BBB1BFD01D3
:101BE0000DC0AA1FBB1FEE1FFF1FA217B307E407FC
:101BF000F50720F0A21BB30BE40BF50B661F771F54
:101C0000881F991F1A9469F7609570958095909533
:101C10009B01AC01BD01CF010895052E97FB1EF479
:101C200000940E94240E57FD07D00E94EB0D07FC84
:101C300003D04EF40C94240E509540953095219588
:101C40003F4F4F4F5F4F08959095809570956195E8
:101C50007F4F8F4F9F4F0895EE0FFF1F0590F49118
:101C6000E02D09940E94A30FB7FF0895821B930BE8
:101C70000895DF93CF931F930F939A9DF02D219F8B
:101C8000F00D8B9DF00D8A9DE02DF10D039FF00D61
:101C9000029FE00DF11D4E9DE00DF11D5E9DF00DCA
:101CA0004F9DF00D7F936F93BF92AF925F934F93D1
:101CB000D5010E94A30F8B01AC01D7010E94A30F95
:101CC000EB01E80FF91FD6010E94890E2F913F9179
:101CD000D6010E94A30FC60FD71FE81FF91FAF91AF
:101CE000BF910E94890E2F913F910E94A30FC60FB2
:101CF000D71FE81FF91FD6010E94A30FE60FF71F99
:101D00009801BE01CF0111240F911F91CF91DF9156
:101D100008950E94A30F460F571FC81FD91F08F42C
:101D20003196089597FB57FF0C94A20E9F938F93C3
:101D30000E94A20E6E1B7F0BAF91BF918A0B9B0B73
:101D40000895E894DF93CF93FC01DB010E94A30F79
:101D50007F936F93E9019A01AC01BF93AF933F93D7
:101D60002F93DF010E94A30F26F46C1B7D0B820BC7
:101D7000930B9E01EB01FC010E94890EAF91BF9174
:101D80002F913F910E94890EBE01CF01F9012F9141
:101D90003F91CF91DF910895689401C0E894F92FA5
:101DA000F12B12F00C94000FA0E0B0E0EAEDFEE0A1
:101DB0000C94720F092E059422F40E945C0F1123DB
:101DC00092F4F0E80F26FFEFE094F0940095109560
:101DD000B094C094D094A194BF0ACF0ADF0AEF0A4E
:101DE000FF0A0F0B1F0B0E940B0F07FC0E945C0FDA
:101DF000CDB7DEB7ECE00C948E0F689401C0E89488
:101E00008F929F92CF93DF930E940B0FDF91CF9120
:101E10009F908F90089588249924F401E401B0E400
:101E20009F93AA279A158B049C04ED05FE05CF0508
:101E3000D007A10798F4AD2FDC2FCF2FFE2FE92D6F
:101E4000982C892E982F872F762F652F542F432F6C
:101E5000322F2227B85031F7BF9127C01B2EBF91D8
:101E6000BB27220F331F441F551F661F771F881F74
:101E7000991F881C991CEE1FFF1FCC1FDD1FAA1F76
:101E8000BB1F8A149B04EC05FD05CE05DF05A007EA
:101E9000B10748F08A189B08EC09FD09CE09DF0953
:101EA000A00BB10B21601A94E1F62EF49401AF015E
:101EB000BE01CD01000C08956095709580959095B8
:101EC00030954095509521953F4F4F4F5F4F6F4F45
:101ED0007F4F8F4F9F4F08952F923F924F925F9267
:101EE0006F927F928F929F92AF92BF92CF92DF922A
:101EF000EF92FF920F931F93CF93DF93CDB7DEB78F
:101F0000CA1BDB0B0FB6F894DEBF0FBECDBF099422
:101F10002A88398848885F846E847D848C849B8479
:101F2000AA84B984C884DF80EE80FD800C811B8187
:101F3000AA81B981CE0FD11D0FB6F894DEBF0FBEB6
:101F4000CDBFED010895A29FB001B39FC001A39F33
:101F5000700D811D1124911DB29F700D811D1124E2
:101F6000911D08955058BB27AA270E94CA0F0C94B0
:101F70003D110E942F1138F00E94361120F039F4E3
:101F80009F3F19F426F40C942C110EF4E095E7FB16
:101F90000C942611E92F0E944E1158F3BA176207CC
:101FA00073078407950720F079F4A6F50C94701157
:101FB0000EF4E0950B2EBA2FA02D0B01B901900164
:101FC0000C01CA01A0011124FF27591B99F0593FA8
:101FD00050F4503E68F11A16F040A22F232F342FF0
:101FE0004427585FF3CF469537952795A795F0403E
:101FF0005395C9F77EF41F16BA0B620B730B840B53
:10200000BAF09150A1F0FF0FBB1F661F771F881F0A
:10201000C2F70EC0BA0F621F731F841F48F4879562
:1020200077956795B795F7959E3F08F0B0CF939554
:10203000880F08F09927EE0F9795879508950E94CD
:10204000021108F481E008950E9438100C943D11AB
:102050000E94361158F00E942F1140F029F45F3F82
:1020600029F00C94261151110C9471110C942C111F
:102070000E944E1168F39923B1F3552391F3951BF8
:10208000550BBB27AA2762177307840738F09F5F99
:102090005F4F220F331F441FAA1FA9F335D00E2E06
:1020A0003AF0E0E832D091505040E695001CCAF773
:1020B0002BD0FE2F29D0660F771F881FBB1F261736
:1020C00037074807AB07B0E809F0BB0B802DBF010D
:1020D000FF2793585F4F3AF09E3F510578F00C94DC
:1020E00026110C9471115F3FE4F3983ED4F386956A
:1020F00077956795B795F7959F5FC9F7880F911DFD
:102100009695879597F90895E1E0660F771F881FE8
:10211000BB1F621773078407BA0720F0621B730B9B
:10212000840BBA0BEE1F88F7E09508950E945611B4
:1021300088F09F5798F0B92F9927B751B0F0E1F088
:10214000660F771F881F991F1AF0BA95C9F714C038
:10215000B13091F00E947011B1E008950C947011AB
:10216000672F782F8827B85F39F0B93FCCF3869571
:1021700077956795B395D9F73EF4909580957095CE
:1021800061957F4F8F4F9F4F0895E89409C097FB4B
:102190003EF490958095709561957F4F8F4F9F4F3E
:1021A0009923A9F0F92F96E9BB279395F695879582
:1021B00077956795B795F111F8CFFAF4BB0F11F445
:1021C00060FF1BC06F5F7F4F8F4F9F4F16C08823EC
:1021D00011F096E911C0772321F09EE8872F762F22
:1021E00005C0662371F096E8862F70E060E02AF063
:1021F0009A95660F771F881FDAF7880F969587954F
:1022000097F90895990F0008550FAA0BE0E8FEEF23
:1022100016161706E807F907C0F012161306E407AA
:10222000F50798F0621B730B840B950B39F40A26A3
:1022300061F0232B242B252B21F408950A2609F481
:10224000A140A6958FEF811D811D089597F99F6785
:1022500080E870E060E008959FEF80EC089500242E
:102260000A941616170618060906089500240A94FB
:1022700012161306140605060895092E0394000C81
:1022800011F4882352F0BB0F40F4BF2B11F460FF10
:1022900004C06F5F7F4F8F4F9F4F089557FD905839
:1022A000440F551F59F05F3F71F04795880F97FB1A
:1022B000991F61F09F3F79F08795089512161306D4
:1022C0001406551FF2CF4695F1DF08C01616170603
:1022D0001806991FF1CF8695710561050894089538
:1022E000E894BB2766277727CB0197F908950E94CA
:1022F000021108F48FEF08950E948F110C943D1184
:102300000E942F1138F00E94361120F0952311F011
:102310000C9426110C942C1111240C9471110E9410
:102320004E1170F3959FC1F3950F50E0551F629FBA
:10233000F001729FBB27F00DB11D639FAA27F00D1E
:10234000B11DAA1F649F6627B00DA11D661F829F45
:102350002227B00DA11D621F739FB00DA11D621F2A
:10236000839FA00D611D221F749F3327A00D611D47
:10237000231F849F600D211D822F762F6A2F112429
:102380009F5750409AF0F1F088234AF0EE0FFF1F5C
:10239000BB1F661F771F881F91505040A9F79E3FB3
:1023A000510580F00C9426110C9471115F3FE4F3F9
:1023B000983ED4F3869577956795B795F795E79509
:1023C0009F5FC1F7FE2B880F911D9695879597F912
:1023D00008950E940211880B990B089581E090E006
:0A23E000F8940C94F311F894FFCF69
:1023EA00FFFFFFFF00E100000000000000C1808144
:1023FA00000000000000000F02A90230022404427B
:10240A0004250200000000C30393038B03770368CB
:10241A000367030D0A006E616E00696E66006F76CF
:04242A0066002E001A
:00000001FF
